{
  "contractName": "Checker",
  "abi": [
    {
      "constant": true,
      "inputs": [
        {
          "name": "",
          "type": "address"
        },
        {
          "name": "",
          "type": "uint256"
        }
      ],
      "name": "tweets",
      "outputs": [
        {
          "name": "_userId",
          "type": "bytes32"
        },
        {
          "name": "text",
          "type": "string"
        }
      ],
      "payable": false,
      "stateMutability": "view",
      "type": "function"
    },
    {
      "constant": true,
      "inputs": [],
      "name": "maxAmountOfTweet",
      "outputs": [
        {
          "name": "",
          "type": "uint256"
        }
      ],
      "payable": false,
      "stateMutability": "view",
      "type": "function"
    },
    {
      "constant": true,
      "inputs": [
        {
          "name": "",
          "type": "address"
        }
      ],
      "name": "lastIds",
      "outputs": [
        {
          "name": "",
          "type": "uint256"
        }
      ],
      "payable": false,
      "stateMutability": "view",
      "type": "function"
    },
    {
      "constant": false,
      "inputs": [
        {
          "name": "_userId",
          "type": "bytes32"
        },
        {
          "name": "_tweet",
          "type": "string"
        }
      ],
      "name": "getTweet",
      "outputs": [],
      "payable": false,
      "stateMutability": "nonpayable",
      "type": "function"
    },
    {
      "constant": true,
      "inputs": [
        {
          "name": "_id",
          "type": "uint256"
        }
      ],
      "name": "showTweet",
      "outputs": [
        {
          "name": "",
          "type": "string"
        }
      ],
      "payable": false,
      "stateMutability": "view",
      "type": "function"
    }
  ],
  "bytecode": "0x608060405234801561001057600080fd5b50610782806100206000396000f30060806040526004361061006d576000357c0100000000000000000000000000000000000000000000000000000000900463ffffffff16806305a1b4a9146100725780631ef5fb421461014757806341bb305c1461017257806380575d00146101e9578063a74749181461028f575b600080fd5b34801561007e57600080fd5b506100bd600480360381019080803573ffffffffffffffffffffffffffffffffffffffff169060200190929190803590602001909291905050506102e6565b60405180836000191660001916815260200180602001828103825283818151815260200191508051906020019080838360005b8381101561010b5780820151818401526020810190506100f0565b50505050905090810190601f1680156101385780820380516001836020036101000a031916815260200191505b50935050505060405180910390f35b34801561015357600080fd5b5061015c6103b4565b6040518082815260200191505060405180910390f35b34801561017e57600080fd5b506101e76004803603810190808035600019169060200190929190803590602001908201803590602001908080601f01602080910402602001604051908101604052809392919081815260200183838082843782019150505050505091929192905050506103b9565b005b3480156101f557600080fd5b5061021460048036038101908080359060200190929190505050610583565b6040518080602001828103825283818151815260200191508051906020019080838360005b83811015610254578082015181840152602081019050610239565b50505050905090810190601f1680156102815780820380516001836020036101000a031916815260200191505b509250505060405180910390f35b34801561029b57600080fd5b506102d0600480360381019080803573ffffffffffffffffffffffffffffffffffffffff16906020019092919050505061067c565b6040518082815260200191505060405180910390f35b60006020528160005260406000208160648110151561030157fe5b6002020160009150915050806000015490806001018054600181600116156101000203166002900480601f0160208091040260200160405190810160405280929190818152602001828054600181600116156101000203166002900480156103aa5780601f1061037f576101008083540402835291602001916103aa565b820191906000526020600020905b81548152906001019060200180831161038d57829003601f168201915b5050505050905082565b606481565b6103c1610694565b604080519081016040528084600019168152602001838152509050806000803373ffffffffffffffffffffffffffffffffffffffff1673ffffffffffffffffffffffffffffffffffffffff168152602001908152602001600020600160003373ffffffffffffffffffffffffffffffffffffffff1673ffffffffffffffffffffffffffffffffffffffff1681526020019081526020016000205460648110151561046757fe5b600202016000820151816000019060001916905560208201518160010190805190602001906104979291906106b1565b509050506064600160003373ffffffffffffffffffffffffffffffffffffffff1673ffffffffffffffffffffffffffffffffffffffff1681526020019081526020016000205410151561052e576000600160003373ffffffffffffffffffffffffffffffffffffffff1673ffffffffffffffffffffffffffffffffffffffff1681526020019081526020016000208190555061057e565b600160003373ffffffffffffffffffffffffffffffffffffffff1673ffffffffffffffffffffffffffffffffffffffff168152602001908152602001600020600081548092919060010191905055505b505050565b6060806000803373ffffffffffffffffffffffffffffffffffffffff1673ffffffffffffffffffffffffffffffffffffffff168152602001908152602001600020836064811015156105d157fe5b600202016001018054600181600116156101000203166002900480601f01602080910402602001604051908101604052809291908181526020018280546001816001161561010002031660029004801561066c5780601f106106415761010080835404028352916020019161066c565b820191906000526020600020905b81548152906001019060200180831161064f57829003601f168201915b5050505050905080915050919050565b60016020528060005260406000206000915090505481565b604080519081016040528060008019168152602001606081525090565b828054600181600116156101000203166002900490600052602060002090601f016020900481019282601f106106f257805160ff1916838001178555610720565b82800160010185558215610720579182015b8281111561071f578251825591602001919060010190610704565b5b50905061072d9190610731565b5090565b61075391905b8082111561074f576000816000905550600101610737565b5090565b905600a165627a7a72305820afc61e17ff8af15d913f0d967a528231b8e113fa04668c5816c9d3a999b1d4240029",
  "source": "pragma solidity ^0.4.20;\n\ncontract Checker{\n\n    struct Tweet{\n        bytes32 _userId;\n        string text;\n    }\n\n    // user can save 100 tweet\n    uint256 public constant maxAmountOfTweet = 100;\n\n    // Owner => Tweet\n    mapping(address => Tweet[maxAmountOfTweet]) public tweets;\n\n\t// Owner => last tweet id\n    mapping(address => uint256) public lastIds;\n\n    function getTweet(bytes32 _userId, string _tweet) public {\n        //make Tweet\n        Tweet memory mytweet = Tweet(_userId, _tweet);\n        //save Tweet  to tweets[]\n        //lastIds[msg.sender]番目にmytweetを格納する，\n        tweets[msg.sender][lastIds[msg.sender]] = mytweet;\n\n        if(lastIds[msg.sender] >= maxAmountOfTweet) lastIds[msg.sender] = 0;\n\t\telse lastIds[msg.sender]++;\n    }\n\n    function showTweet(uint _id) public view returns(string){  \n        string memory result = tweets[msg.sender][_id].text;\n        return result;\n    }\n}",
  "sourcePath": "/Users/andy/deleted_tweet_checker/contracts/Checker.sol",
  "compiler": {
    "name": "solc",
    "version": "0.4.24+commit.e67f0147.Emscripten.clang"
  },
  "schemaVersion": "2.0.1",
  "updatedAt": "2018-10-13T12:15:52.967Z"
}