{
  "contractName": "Checker",
  "abi": [
    {
      "constant": true,
      "inputs": [
        {
          "name": "",
          "type": "address"
        },
        {
          "name": "",
          "type": "uint256"
        }
      ],
      "name": "tweets",
      "outputs": [
        {
          "name": "userId",
          "type": "bytes32"
        },
        {
          "name": "text",
          "type": "string"
        }
      ],
      "payable": false,
      "stateMutability": "view",
      "type": "function"
    },
    {
      "constant": true,
      "inputs": [],
      "name": "maxAmountOfTweet",
      "outputs": [
        {
          "name": "",
          "type": "uint256"
        }
      ],
      "payable": false,
      "stateMutability": "view",
      "type": "function"
    },
    {
      "constant": true,
      "inputs": [
        {
          "name": "",
          "type": "address"
        }
      ],
      "name": "lastIds",
      "outputs": [
        {
          "name": "",
          "type": "uint256"
        }
      ],
      "payable": false,
      "stateMutability": "view",
      "type": "function"
    },
    {
      "constant": false,
      "inputs": [
        {
          "name": "_userId",
          "type": "bytes32"
        },
        {
          "name": "_tweet",
          "type": "string"
        }
      ],
      "name": "getTweet",
      "outputs": [],
      "payable": false,
      "stateMutability": "nonpayable",
      "type": "function"
    },
    {
      "constant": true,
      "inputs": [
        {
          "name": "_id",
          "type": "uint256"
        }
      ],
      "name": "showTweet",
      "outputs": [
        {
          "name": "",
          "type": "bytes32"
        },
        {
          "name": "",
          "type": "string"
        }
      ],
      "payable": false,
      "stateMutability": "view",
      "type": "function"
    }
  ],
  "bytecode": "0x608060405234801561001057600080fd5b506107ef806100206000396000f30060806040526004361061006d576000357c0100000000000000000000000000000000000000000000000000000000900463ffffffff16806305a1b4a9146100725780631ef5fb421461014757806341bb305c1461017257806380575d00146101e9578063a74749181461029e575b600080fd5b34801561007e57600080fd5b506100bd600480360381019080803573ffffffffffffffffffffffffffffffffffffffff169060200190929190803590602001909291905050506102f5565b60405180836000191660001916815260200180602001828103825283818151815260200191508051906020019080838360005b8381101561010b5780820151818401526020810190506100f0565b50505050905090810190601f1680156101385780820380516001836020036101000a031916815260200191505b50935050505060405180910390f35b34801561015357600080fd5b5061015c6103c3565b6040518082815260200191505060405180910390f35b34801561017e57600080fd5b506101e76004803603810190808035600019169060200190929190803590602001908201803590602001908080601f01602080910402602001604051908101604052809392919081815260200183838082843782019150505050505091929192905050506103c8565b005b3480156101f557600080fd5b5061021460048036038101908080359060200190929190505050610592565b60405180836000191660001916815260200180602001828103825283818151815260200191508051906020019080838360005b83811015610262578082015181840152602081019050610247565b50505050905090810190601f16801561028f5780820380516001836020036101000a031916815260200191505b50935050505060405180910390f35b3480156102aa57600080fd5b506102df600480360381019080803573ffffffffffffffffffffffffffffffffffffffff1690602001909291905050506106e9565b6040518082815260200191505060405180910390f35b60006020528160005260406000208160c88110151561031057fe5b6002020160009150915050806000015490806001018054600181600116156101000203166002900480601f0160208091040260200160405190810160405280929190818152602001828054600181600116156101000203166002900480156103b95780601f1061038e576101008083540402835291602001916103b9565b820191906000526020600020905b81548152906001019060200180831161039c57829003601f168201915b5050505050905082565b60c881565b6103d0610701565b604080519081016040528084600019168152602001838152509050806000803373ffffffffffffffffffffffffffffffffffffffff1673ffffffffffffffffffffffffffffffffffffffff168152602001908152602001600020600160003373ffffffffffffffffffffffffffffffffffffffff1673ffffffffffffffffffffffffffffffffffffffff1681526020019081526020016000205460c88110151561047657fe5b600202016000820151816000019060001916905560208201518160010190805190602001906104a692919061071e565b5090505060c8600160003373ffffffffffffffffffffffffffffffffffffffff1673ffffffffffffffffffffffffffffffffffffffff1681526020019081526020016000205410151561053d576000600160003373ffffffffffffffffffffffffffffffffffffffff1673ffffffffffffffffffffffffffffffffffffffff1681526020019081526020016000208190555061058d565b600160003373ffffffffffffffffffffffffffffffffffffffff1673ffffffffffffffffffffffffffffffffffffffff168152602001908152602001600020600081548092919060010191905055505b505050565b60006060600060606000803373ffffffffffffffffffffffffffffffffffffffff1673ffffffffffffffffffffffffffffffffffffffff1681526020019081526020016000208560c8811015156105e557fe5b600202016000015491506000803373ffffffffffffffffffffffffffffffffffffffff1673ffffffffffffffffffffffffffffffffffffffff1681526020019081526020016000208560c88110151561063a57fe5b600202016001018054600181600116156101000203166002900480601f0160208091040260200160405190810160405280929190818152602001828054600181600116156101000203166002900480156106d55780601f106106aa576101008083540402835291602001916106d5565b820191906000526020600020905b8154815290600101906020018083116106b857829003601f168201915b505050505090508181935093505050915091565b60016020528060005260406000206000915090505481565b604080519081016040528060008019168152602001606081525090565b828054600181600116156101000203166002900490600052602060002090601f016020900481019282601f1061075f57805160ff191683800117855561078d565b8280016001018555821561078d579182015b8281111561078c578251825591602001919060010190610771565b5b50905061079a919061079e565b5090565b6107c091905b808211156107bc5760008160009055506001016107a4565b5090565b905600a165627a7a72305820d9c5f3f1ef572eea40095ef76045511391fb10deb84f676c3e0acef2cfc9111b0029",
  "source": "pragma solidity ^0.4.20;\n\ncontract Checker{\n\n    struct Tweet{\n        bytes32 userId;\n        string text;\n    }\n\n    // user can save 200 tweet\n    uint256 public constant maxAmountOfTweet = 200;\n\n    // Owner => Tweet\n    mapping(address => Tweet[maxAmountOfTweet]) public tweets;\n\n\t// Owner => last tweet id\n    mapping(address => uint256) public lastIds;\n\n    //save Tweet\n    function getTweet(bytes32 _userId, string _tweet) public {\n        //make Tweet\n        Tweet memory mytweet = Tweet(_userId, _tweet);\n        //save Tweet  to tweets[]\n        //lastIds[msg.sender]番目にmytweetを格納する，\n        tweets[msg.sender][lastIds[msg.sender]] = mytweet;\n\n        if(lastIds[msg.sender] >= maxAmountOfTweet) lastIds[msg.sender] = 0;\n\t\telse lastIds[msg.sender]++;\n    }\n\n    // show saved tweet\n    function showTweet(uint _id) public view returns(bytes32, string){  \n        bytes32 userId = tweets[msg.sender][_id].userId;\n        string memory result = tweets[msg.sender][_id].text;\n        return (userId, result);\n    }\n}",
  "sourcePath": "/Users/andy/deleted_tweet_checker/contracts/Checker.sol",
  "compiler": {
    "name": "solc",
    "version": "0.4.24+commit.e67f0147.Emscripten.clang"
  },
  "schemaVersion": "2.0.1",
  "updatedAt": "2018-11-22T05:30:49.135Z"
}